:020000040800F2
:10000000F8FF012089CE080825CF0808D96805081F
:1000100025CF080825CF080825CF080800000000D4
:1000200000000000000000000000000025CF0808CC
:1000300025CF08080000000025CF0808895F0408C4
:1000400025CF080825CF080825CF080825CF0808A0
:1000500025CF080825CF0808C9190408F119040894
:10006000191A0408411A0408691A0408490300000F
:100070005D03000071030000850300009903000088
:10008000AD030000C103000025CF080825CF0808F4
:1000900025CF080825CF080825CF0808911A04089D
:1000A00025CF08080143040825CF0808F1420408B9
:1000B0001143040821430408314304084516040889
:1000C00039160408791604086D16040825CF0808A7
:1000D00025CF08084133000009350000ED36000047
:1000E000D11A040825CF080800000000ED430408D9
:1000F000C5430408FD430408B5430408D5030000C4
:1001000025CF0808652404084143040825CF0808C2
:10011000D5380000BD3A00005143040819180808FA
:10012000E9030000FD0300001104000025040000A5
:100130003904000025CF080825CF080825CF080876
:1001400000000000000000000000000000000000AF
:100150004D0400006104000075040000A53C00008F
:10016000AD160408A116040825CF080825CF0808F5
:1001700025CF080825CF080825CF08080000000073
:1001800025CF080825CF08088D3E000075400000E7
:1001900025CF080825CF080825CF080825CF08084F
:1001A00025CF080825CF080825CF080825CF08083F
:1001B00025CF080825CF080825CF0808E116040830
:1001C000D516040825CF080825CF080825CF08082C
:1001D00025CF0808590E080825CF080825CF08089C
:1001E00025CF080825CF080825CF080825CF0808FF
:1001F00025CF080825CF080825CF080825CF0808EF
:1002000025CF080825CF080825CF080825CF0808DE
:100210000D4404081D4404082D44040825CF080893
:1002200025CF080825CF080825CF080800000000C2
:100230006924040825CF08080000000025CF08081D
:1002400025CF080825CF080825CF080825CF08089E
:1002500025CF080825CF080825CF080825CF08088E
:1002600025CF080825CF080825CF080825CF08087E
:1002700025CF080825CF08085D42000000000000D7
:1002800025CF08080000000025CF08080000000066
:080290000000000025CF080862
:020000040804EE
:10000000114A037A0168D35C10B4CC58CA1824F0A2
:100010000104CC501368DB07FCD4037D1F2B09D9E6
:10002000203B20225DF8044B02FA03F343F018034F
:10003000CB60704720225DF8044B02FA03F343F0D3
:1000400018038B60704700BFF83F09084368426D92
:1000500030B49A61EFF31182502383F31288416820
:10006000D2B2856C0B68046D23EA050323430B6051
:1000700082F31188436981681A68096822F00102D5
:10008000D0E908541A60826A1D605C615A60D0E948
:100090000B429C60DA600023B0F86C2030BCCA626E
:1000A00003777047002A4FEA014C034630B508BF7A
:1000B000E64600F1C00514BF8E468C460024196840
:1000C0000C3353F8042C43F8084C41EA0C0142EA83
:1000D0000E02AB4243F80C1C43F8042CEFD1D0F8CD
:1000E000C03043EA0E03C0E93144C0F8C03030BD2F
:1000F00010B40C4C6368002B11DD002004F1080CD7
:100100000146DCF8AC3003F1C00259600C33934275
:10011000FBD1013063680CF5867C8342F1DC5DF82D
:10012000044B704704000020F0B5404C04EB401332
:1001300093F8543403B9F0BD3D4B42011D7893F858
:1001400001C065450CD00CEB4C0E03EBCE0E9EF8B7
:1001500004604FEA4C0E771E012F5AD9032E52D05D
:100160002244A2F83814EFF31181902383F312880C
:1001700092F83A34C9B2B2F8380443EA4003002096
:100180009BB282F83A0481F311881909207881EA38
:1001900013215940D8B1C9431B01D2F8505401244E
:1001A000D2F83C049BB201F00F01D5F8AC2084409A
:1001B0000B4302F1C000590013F4004F8BB202D17F
:1001C0005168214351600C329042F4D1F0BDD2F815
:1001D0003C041B01D2F8502401F00F0110309BB2F7
:1001E0000124D2F8AC200B43844002F1C000590036
:1001F00013F4004F8BB202D15168214351600C328D
:100200009042F4D1F0BD0CF1010606F00306AE42B7
:10021000A6D0E64403EBCE030344597C00299FD0CB
:10022000A318012083F83A049AE700BF04000020D5
:10023000200E0024704700BF024B03EB401393F8DD
:100240005504704704000020C34BD3E9191270B560
:100250008C0F93F8F050100EC2F3072C83F89840DF
:10026000C1F383640001012D83F89940C1F3016457
:1002700083F89A40C1F3074483F89B40C1F30724F5
:10028000C9B283F89C40C2F3035483F89D10A3F8CD
:100290009E00C2F3C030B3F89E1089B241EA040157
:1002A000C2F30344A3F89E10C2F3403183F8A04088
:1002B000C2F3803483F8A1004FF0000083F8A2401D
:1002C00083F8A310C2F3003183F8A410D96E83F829
:1002D000A50040F2EB80022D00F0BF802A204FEAFB
:1002E0004C0C83F8B140C1F3C01201F07F010CF057
:1002F0007E0C83F8B2C04FF0010C93F8B240144367
:100300001A6F83F8B240D40F83F8B310910D83F8BD
:10031000B440C2F3417401F00C01C2F3815583F87B
:10032000B540C2F3826483F8B64083F8B71093F8FF
:10033000B7105C6F294383F8B710C2F3405183F8BC
:10034000B810002183F8B910C2F3004183F8BA1045
:10035000C2F3C03183F8BB10C2F3803183F8BC1004
:10036000C2F3403183F8BD10C2F3003183F8BE10F0
:10037000C2F3812183F8BF10C2F30121C2F3460208
:1003800083F8C010C4F3074183F8C120220E09028C
:1003900083F8C2C083F8C420C4F30722A3F8C610B0
:1003A0002406B3F8C61089B21143A3F8C610996F9A
:1003B000C3F8C8400C0ED3F8C82042EA0442C3F880
:1003C000C8200A0AD3F8C84002F47F422243C1F38E
:1003D0000724C9B2C3F8C820D3F8C850DA6F2C4339
:1003E000C3F8C84083F8CC10110E83F8CD10110C5F
:1003F0000906C3F8D0101102D3F8D0400A4601F420
:100400007F01214392B2D3F88040C3F8D010D3F8D3
:10041000D0100A43C3F8D020C4F30352D3F8D0104D
:1004200041EA1461C3F8D01093F8D4101143C4F317
:10043000072283F8D410210A01F47061A3F8D610C2
:10044000B3F8D61089B21143C4F34602A3F8D6100C
:1004500083F8D82083F8D9C070BD1204C1F3072CEB
:100460000D0E02F47C12C3F8A820C1F30742D3F8A2
:10047000A84044EA0524C3F8A840D3F8A840224382
:100480004FF40074C3F8A820D3F8A820C3F8E840BC
:10049000013240F10004A40244EA92549202C3F8EB
:1004A000E440C1F38034C3F8E02018E74FEA8C2C15
:1004B000C1F3C26594000CF44062C1F3072C04F44C
:1004C0007F74C3F8A820D3F8A8201443CA0BC3F83C
:1004D000A84002F00602D3F8A84044EA9174C3F899
:1004E000A840C1F3026483F8AC50012583F8AD4005
:1004F000C1F3425483F8AE40C1F3824483F8AF4065
:10050000C1F3C03483F8B02093F8B020224383F8BD
:10051000B020D3F8A84093F8B02093F8A06002323E
:1005200005FA02F2B540D617A2FB052EC3F8E85033
:1005300005FB06EE04FB0EEE0134A2FB0424A644E8
:10054000520AC1F3803442EACE52C3F8E0204FEAA7
:100550005E22C3F8E420C2E6200E0024D0E9092080
:10056000131A58425841704790F8573830B53BB984
:1005700090F85518012490F85638DAB2914200D814
:1005800030BD04FA03F2B0F85E5801332A43A0F8F4
:100590005E28F2E70379024613F0010006D0D2E9A3
:1005A0000731D2685B1A013A03EA0200704710B5BE
:1005B0000379044613F001030ED0FFF7EBFF034667
:1005C00050B1226A6369E1689B5C0132B2FBF1F0D1
:1005D000DBB201FB10222262184610BD03799B0793
:1005E0000AD5436A8269D154436A02690133B3FB75
:1005F000F2F102FB1133436270477047017170479B
:100600000379014613F0020007D00B69D1E90921F3
:10061000013B521A1A40D2B2981A704710B584465C
:100620004FEA810E102312F4004F4FEA420214BF2A
:100630000E240724013B92B2CCF80040F444F2D1DE
:1006400000EB81128C010351122042F8213010BDC1
:1006500010B584464FEA810E0424130B013C4FEA87
:10066000021203EB430392B203F11803CCF80030FB
:10067000F444F2D100EB01130A018450062043F840
:10068000214010BD704700BF704700BF00EB400025
:10069000024B03EBC00393F84905704704000020A8
:1006A000064B93F8F825824206D900EB400003EB95
:1006B000C003D3F84C0570470020704704000020A9
:1006C0001D4B93F8FC25AAB3D3F8381509B10020C7
:1006D0000860012A2ED0D3F8501509B10020086017
:1006E000022A27D0D3F8681509B100200860032A30
:1006F00020D0D3F8801509B100200860042A19D051
:10070000D3F8981509B100200860052A12D0D3F853
:10071000B01509B100200860062A0BD0D3F8C8151F
:1007200009B100200860072A04D0D3F8E0350BB1E6
:1007300000221A60704700BF040000201D4B93F890
:10074000FC25AAB3D3F8381509B100200860012AA6
:100750002ED0D3F8501509B100200860022A27D006
:10076000D3F8681509B100200860032A20D0D3F817
:10077000801509B100200860042A19D0D3F8981513
:1007800009B100200860052A12D0D3F8B01509B1CC
:1007900000200860062A0BD0D3F8C81509B1002044
:1007A0000860072A04D0D3F8E0350BB100221A60A4
:1007B000704700BF04000020C34B1B78002B40F0A3
:1007C0004D81C24B93F8FC25002A00F0478193F835
:1007D000481530B500294ED1D3F838150020012A2C
:1007E000086047D993F86015002966D1D3F85015F1
:1007F0000020022A08603DD993F87815002940F0BE
:10080000C980D3F868150020032A086032D993F80C
:100810009015002940F0E080D3F880150020042ACC
:10082000086027D993F8A815002940F0F680D3F87E
:1008300098150020052A08601CD993F8C0150029D6
:1008400040F00D81D3F8B0150020062A086011D9B8
:1008500093F8D815002959D1D3F8C8150020072AD4
:10086000086007D993F8F025002A72D1D3F8E03553
:1008700000221A6030BDD3F83C25910AA1F5801101
:10088000522940F20D814FF0FE0CEFF31181502000
:1008900080F312888E4C4FF02C0E556AC9B2506905
:1008A0000EFB0C4C013540F00100CCF81C5150619E
:1008B00081F3118893F8FC258EE7D3F85425910A2B
:1008C000A1F58011522940F2EF804FF0FE0CEFF3BA
:1008D0001181502080F312884FF02C0E556A7C4C09
:1008E000C9B2506901350EFB0C4440F00100C4F858
:1008F0001C51506181F3118893F8FC250020D3F836
:100900005015022A08603FF677AFB3E7D3F8CC253D
:10091000910AA1F58011522900F2E2806D4810F889
:1009200001C0EFF31181502080F312884FF02C0E9C
:10093000556A674CC9B2506901350EFB0C4440F052
:100940000100C4F81C51506181F3118893F8FC2513
:1009500082E7D3F8E425910AA1F58011522900F22B
:10096000C2805C4810F801C0EFF31181502080F381
:1009700012884FF02C0E556A554CC9B2506901359A
:100980000EFB0C4440F00100C4F81C51506181F38F
:1009900011886BE7D3F86C25910AA1F580115229D3
:1009A00040F286804FF0FE0EEFF31181502080F36D
:1009B00012884FF02C0C556A454CC9B2506901356C
:1009C0000CFB0E4440F00100C4F81C51506181F34F
:1009D000118893F8FC2514E7D3F88425910AA1F532
:1009E0008011522968D94FF0FE0CEFF3118150208D
:1009F00080F312884FF02C0E556A354CC9B25069FD
:100A000001350EFB0C4440F00100C4F81C5150614C
:100A100081F3118893F8FC25FEE6D3F89C25910A12
:100A2000A1F5801152294BD94FF0FE0CEFF3118143
:100A3000502080F312884FF02C0E556A244CC9B216
:100A4000506901350EFB0C4440F00100C4F81C5104
:100A5000506181F3118893F8FC25E8E67047D3F8DC
:100A6000B425910AA1F58011522935D94FF0FE0C19
:100A7000EFF31181502080F312884FF02C0E556A4D
:100A8000134CC9B2506901350EFB0C4440F0010013
:100A9000C4F81C51506181F3118893F8FC25D1E60C
:100AA0000C4810F801C0F0E60A4810F801C00EE743
:100AB000084810F801E077E7064810F801C094E70D
:100AC000044810F801C0B1E7000000240400002031
:100AD000200E0024D8EA0808044810F801C0C7E72F
:100AE0004FF0FE0C1DE74FF0FE0C3DE7D8EA08087A
:100AF00000EE100AB8EE400A704700BFBCEEC00A14
:100B000010EE103A98B2704707280AD84FF4B47222
:100B1000054B02FB0033B3F80006B0FA80F0400941
:100B200070470020704700BF04000020072807D846
:100B3000044B4FF4B471012201FB003383F8022609
:100B4000704700BF04000020072808D8044B03EBBF
:100B5000401393F8542412B1012283F83A247047C9
:100B600004000020072808D8054B03EB4013B3F816
:100B70003804B0FA80F0400970470020704700BF89
:100B800004000020054B93F8F825824204D903EBBA
:100B90004013D3F84404704700207047040000203D
:100BA00038B5074B14460D46D3F888331B6A98476F
:100BB00002464FF40073002012682A60238038BD7B
:100BC000200E002408B5064BD3F8883323B15B69A7
:100BD0009847013840B208BD4FF0FF3008BD00BF54
:100BE000200E0024002070472DE9F04113B3164673
:100BF0000F4603EB0208134CD4F888530023394600
:100C00003046AD681A46A8470028F5D0D4F8883396
:100C1000002BFBD05B6998470028F7D0013607F519
:100C20000077B045E8D1D4F88C330020C4F8903375
:100C3000BDE8F081034C0020D4F88C33C4F8903325
:100C4000BDE8F081200E00242DE9F04143B31646A3
:100C50000F4603EB0208164C04E0D4F8881319B1D0
:100C60004B699847D4F8881300230D6930463946FC
:100C70001A46A8470028F0D1D4F88833002BFBD0BF
:100C80005B6998470028F7D0013607F50077B04533
:100C9000E8D1D4F88C330020C4F89033BDE8F0815B
:100CA000034C0020D4F88C33C4F89033BDE8F081B5
:100CB000200E00240020704770B50E4E0D461446DD
:100CC000D6F8E8333BB11A689B881269134096F84E
:100CD000E52352B15BB9FFF7B7FA4FF40073D6F8CA
:100CE000E02000202A60238070BD002BF3D14FF05C
:100CF000FF3070BD200E0024002070470020704798
:100D0000034B93F8B803003818BF0120704700BFA9
:100D1000200E0024816D03460A6A52681278FF2A69
:100D200009D090F8F020013A52B2002A80F8F02061
:100D300006DD012070470822002083F8F02070476C
:100D40000B6A002202205B681A707047836D1B6A71
:100D50005B681B78FF2B0AD190F9F030002B03F170
:100D6000FF3280F8F020D4BF02200120704700201D
:100D7000704700BF836D1B6A5B681B78FE2B0CD02D
:100D8000FF2B08D190F9F0305A1E002B80F8F0208C
:100D900001DD01207047022070470020704700BF2E
:100DA000034B93F8B803032894BF00200120704739
:100DB000200E002400487047DC110024034B93F8F8
:100DC000B803003818BF0120704700BF200E002470
:100DD000034B93F8B803032894BF00200120704709
:100DE000200E002400487047DC110024164B002020
:100DF00030B493F82A4014B1DD698D4205D001303A
:100E000010330B28F5D130BC7047104BBAB1D3F872
:100E1000A01401EB40218A4201D1022C08D093F8A2
:100E2000702612B9012283F87026012283F88924E2
:100E300003EB0013012283F8B22430BC704703EBAC
:100E4000001383F8B224DEE7A8120024200E002449
:100E500030B400231A4C04F5916084F85C3503E04B
:100E6000013310300B2B19D0C5698D42F8D190F8A1
:100E70002AC0BCF1030FF3D192B1D4F8A01401EB56
:100E800043218A4205D094F87026A2B1012284F849
:100E9000892404EB0314012384F8B23430BC704776
:100EA000D4F8582504EB03130421013283F8B2145B
:100EB000C4F85825F2E7012284F87026E6E700BF5F
:100EC000200E002410B504464CF092FD0146204649
:100ED00089B2BDE81040FFF727B900BF38B50B4D08
:100EE00000EB400005F5A763C40003EBC0032544F5
:100EF00093ED027AD3ED037AE7EE007AB0EE670A5B
:100F00004CF076FDD5F83835186038BD0400002067
:100F100002692DE9F843C36812EA030828D00546A0
:100F20000E464FF00047B8FA88F327FA03F21B3B4E
:100F3000D24308EA02082A61042B16D8DFE803F03E
:100F40003B30251A0300B36A002B3FD003F1FF3971
:100F500000231FFA89F9B362746A34B1236820460A
:100F6000494698476468002CF8D1B8F1000FDAD1EF
:100F7000BDE8F88370680028F7D0696B036889B210
:100F80009847B8F1000FCED1F2E7B0680028ECD056
:100F9000A96B036889B29847B8F1000FC3D1E7E79E
:100FA000F0680028E1D0E96B036889B29847B8F18E
:100FB000000FB8D1DCE730690028D6D0296C03686F
:100FC00089B29847B8F1000FADD1D1E7EB6A1FFAAB
:100FD00083F9C1E78069B4303BF028B938B5134DC7
:100FE00041F20D13124941F28832D5F87407D5F851
:100FF00030470004A060E068014020460B430D210B
:10100000E3603FF03DFE38B1D5F864270346002089
:101010001343C5F8643738BD606900F4F050A0F59B
:101020000060B0FA80F0400938BD00BF200E0024F7
:10103000C0E0FEFF08B5FFF7D1FFA0B10B4BD3F81E
:10104000E80358B1026893F8E533808812691040CC
:101050002BB9003818BF0120013840B208BDB0FAE2
:1010600080F04009F8E74FF0FF3008BD200E002463
:1010700070B5144C05460E4694F8B833042B10D0C6
:10108000082B1CD1D4F8B03383420FD0002394F83E
:101090008624C4F8B4330AB1C4F8AC37FFF79EFF16
:1010A00030B10823C4E9EC5684F8B833022070BD8F
:1010B0000922D4F88C3384F8B823C4F8A83301206B
:1010C00070BD00BF200E0024F8B5A0F50764237999
:1010D000DB0725D5657994F8543805F001073D46BE
:1010E000FBB1D4F848341A68D36A5B08536294F8A9
:1010F000583823B1B4F862380133A4F8623885F067
:101100000101606C43F0CCFD012384F857380023C3
:1011100084F8553884F85638A4F85E3884F8543882
:10112000F8BD94F85768012E03D194F8553884F827
:1011300056382046FFF718FA4EB9012385EA030115
:1011400084F85738606CBDE8F84043F0A9BD00232F
:10115000394684F85738F5E738B53CF09BFD0D4922
:101160000D4CD1F8FC20A4FB00400C4D42F08072E5
:101170000B4B800CC1F8FC204FF060420949C5F8C8
:10118000B007C2F8B01F00225A601A6842F001028C
:101190001A6038BD00ED00E083DE1B43200E002402
:1011A000001000E055CEACC570B505460A26084CC7
:1011B000013E00D170BD94F9000017F059FE031EE6
:1011C00004DB6178EA185172A278EA540434EFE73C
:1011D0002BEB080810B50F4CD4F8B4374BB194F88A
:1011E000C0279988186802F001031B0101FA03F374
:1011F000836142F0CFFFD4F88833002BFBD05B69CA
:1012000098470028F7D0D4F88C330020C4F89033E6
:1012100010BD00BF200E00242DE9F041284D0846E6
:1012200011461A46D5F8E8433CB12668A3883469CC
:10123000234095F8E54384B38BBBC3062FD101232C
:10124000C5F8C407C5F8CC27C5F884304FF400733F
:10125000C5F8C83744F004FB08BBD5F88430002B30
:10126000FBD1D5F8746741F20D17D5F83047DFF898
:1012700054803604A66041F28832E3680D2120468E
:1012800003EA08033B43E3603FF0FAFC58B1D5F8AA
:1012900064370343C5F86437ECE7002BCDD14FF03A
:1012A000FF30BDE8F081636903F4F053B3F5006FDC
:1012B000E0D1D5F88C33C5F89033BDE8F08100BF9C
:1012C000200E0024C0E0FEFF2DE9F041214D104624
:1012D0000A46D5F8E8433CB12668A1883469214024
:1012E00095F8E54384B389BB002144F035FB68BB26
:1012F000D5F88830002BFBD1D5F8746741F20D1773
:10130000D5F83047DFF850803604A66041F28832C5
:10131000E3680D21204603EA08033B43E3603FF006
:10132000AFFC28B1D5F864370343C5F86437ECE760
:10133000636903F4F053B3F5006FE6D1D5F88C334D
:10134000C5F89033BDE8F0810029CDD14FF0FF30D2
:10135000BDE8F081200E0024C0E0FEFF30B5002281
:1013600099B00446952513468DF80C108DF80D5054
:1013700044F040050493012065F307028DF81C300A
:101380000A938DF830308DF84430159317931D4D26
:10139000069010908DF8580002A8CDE90D33CDE9E4
:1013A00013330B0E099005F57B7063F30F220B0CC2
:1013B000090A63F317420DF10703059361F31F62F6
:1013C000114B029208930623104A0DEB03010B9375
:1013D000082312920F9104A985F8843437F0F4FEA3
:1013E000D5F8EC23136A002BFCD19DF80730FF2BB6
:1013F00000D01CB99DF8060019B030BD4FF0FF3089
:10140000FAE700BF200E0024150D04084D0D040856
:1014100030B597B000231E4C0DF107020890084626
:1014200008218DF8143007938DF828300B938DF830
:101430003C301593174D84F884146944099004F5E1
:101440007B7006959FED107BCDE90232CDE910331C
:101450000122CDE91233022304928DF850200E931D
:101460008DED0C7B37F0B0FED4F8EC33186A002811
:10147000FCD19DF80730FE2B03D0FF2B0CBF0120C1
:10148000022017B030BD00BF0000000000000000C7
:10149000200E0024750D040830B52C4C9DB0FD25A0
:1014A00000230122002000218DF8065004F57B75F1
:1014B000C4F8B4338DF83C3010938DF85030159348
:1014C00018931A930E928DF86420CDE912320DF123
:1014D0000603CDE90C01CDE916010CA928461193AC
:1014E00037F072FED4F8EC23136A002BFCD10DF117
:1014F0000701012228468DF8143009930B930492BA
:101500008DF8282084F88424CDE902311049069111
:1015100002A9CDE9073337F057FED4F8EC33186A47
:101520000028FCD19DF80730FF2B08D0D4F88C237D
:101530000923C4F8A82384F8B8331DB030BD0423B0
:10154000022084F8B8331DB030BD00BF200E002447
:101550004D0D04082DE9F041224C074688461646F9
:1015600094F8B8C31D46BCF1040F09D0BCF1080FB4
:1015700002D00020BDE8F081FFF78EFF0228F8D1ED
:1015800094F8AE33BBB139461120FFF7E7FEC0B285
:10159000C0B90522D4F88C330120C4F89483C4F870
:1015A0009873C4F8A063C4F8A45384F8B823C4F8AB
:1015B000A833BDE8F08179021120FFF7CFFEC0B259
:1015C0000028E6D0D4F8EC23136A002BFCD144F0B9
:1015D00029FFD4F8F433002BCBD01A6800209B8865
:1015E0009361C7E7200E002430B40D4CBFF34F8F3A
:1015F0000C4BC3F85C42BFF34F8FBFF36F8F0A4BA6
:101600000A4D03F13000DA792AB1597934F8112002
:1016100092B225F811200C338342F4D130BC7047CC
:1016200040C6002400ED00E0F015002400B00024C6
:1016300000207047704700BF01483BF0E7BF00BF84
:101640005C160024084810B4D0F83C38D0F8704834
:1016500099691A682CB1234600F63C005DF8044BEA
:1016600018475DF8044B7047200E002401483BF0FA
:10167000CDBF00BFC0160024084810B4D0F8A03871
:10168000D0F8D44899691A682CB1234600F50A604D
:101690005DF8044B18475DF8044B7047200E00249A
:1016A00001483BF0B3BF00BF24170024084810B422
:1016B000D0F80439D0F8384999691A682CB1234612
:1016C00000F604105DF8044B18475DF8044B7047B2
:1016D000200E002401483BF099BF00BF881700246A
:1016E000084810B4D0F86839D0F89C4999691A684C
:1016F0002CB1234600F668105DF8044B18475DF8DE
:10170000044B7047200E00242DE9F0410468D4E911
:101710000435A8611A7D1F681F2A49D9203A202163
:101720002E6801FA02F242F01802FA602A7D1F2A9E
:1017300048D9203A202101FA02F242F01802F26060
:101740006A6800215868016038461160116841F0EC
:101750001001116093F80880A269414646F098FE96
:101760002D7AE2693046294646F092FE226A636885
:101770009468184A12F80800515D5A686FF30F0216
:1017800022435A603A5842F001023A50725842F0ED
:10179000010272509A6842F440429A601A6842F01C
:1017A00001021A601A6842F400721A60BDE8F08102
:1017B00020212E6801FA02F242F01802BA602A7D56
:1017C0001F2AB6D8202101FA02F242F01802B260B4
:1017D000B6E700BFF83F0908D3B20F2B1FD8114B53
:1017E00000B503F17E0E02E00333734514D093F885
:1017F00000C08445F8D193F801C08C45F4D102EBC8
:1018000042020948997800EB82030430D96000EB6A
:10181000820019715DF804FB00205DF804FB0020D4
:10182000704700BF50EB08080000002410B40C4CB7
:10183000002304F6B41C01E0152B0CD003EB43028B
:1018400001331CF802108142F6D1144494F9B60910
:101850005DF8044B70474FF0FF305DF8044B704764
:10186000200E002430B5114D002305F1F80C02E0E4
:1018700001331A2B18D05CF833408442F8D10CEBBA
:10188000C30EDC009EF804E08E45F1D102EB42026B
:10189000074B254403EB8201043395F8FD4003EB2D
:1018A0008200CC600C7130BD002030BDD8EA080841
:1018B00000000024F0B1002310B504460E4894F84F
:1018C00004E000F6B41C01E0152B11D003EB430239
:1018D00001331CF802107145F6D183186179206834
:1018E00093F9B629D3B20F2B02D8BDE81040B9E75F
:1018F000002010BD00207047200E002401380E4B40
:101900000E4A00EBC000D2F8D81003EB800310B4ED
:10191000D3F8C43083B00A4CA34214BF022301237E
:101920001943C2F8D810D2F8D82013400193019B74
:1019300003B05DF8044B70470000002400440258D7
:10194000000002400138F8B500EBC000124C1D4603
:10195000124B04EB800417460E46D4F8C40098429C
:1019600014BFA120A02044F0FBFDB4F9DA00B909AE
:10197000C4F8D460C4F8DC5044F05EFDB4F9DA3049
:10198000002B07DB03F01F0001225B0904498240A2
:1019900041F82320F8BD00BF0000002400000240F1
:1019A00000E100E0800AA0F58010522806D8044B20
:1019B0001B5C0D2B02D8034AD0567047002070479D
:1019C000D8EA0808E83F09084FF0B042D2F8803062
:1019D000D2F888100B4003F00103C2F8883023B11D
:1019E000024BD3F8F409036818477047200E00240F
:1019F0004FF0B042D2F88030D2F888100B4003F09C
:101A00000203C2F8883023B1024BD3F8F809036807
:101A100018477047200E00244FF0B042D2F88030B3
:101A2000D2F888100B4003F00403C2F8883023B1C9
:101A3000024BD3F8FC09036818477047200E0024B6
:101A40004FF0B042D2F88030D2F888100B4003F04B
:101A50000803C2F8883023B1024BD3F8000A0368A8
:101A600018477047200E00244FF0B042D2F8803063
:101A7000D2F888100B4003F01003C2F8883023B16D
:101A8000024BD3F8040A036818477047200E00245D
:101A9000F8B54FF0B043D3F88050D3F88820154004
:101AA00005F47875C3F888507DB1084F0126B5FA62
:101AB00085F4C4F11F0407EB840306FA04F4D3F899
:101AC000F40903689847A543F1D1F8BD200E00241E
:101AD000F8B54FF0B043D3F88050D3F888201540C4
:101AE00005F47C45C3F888507DB1084F0126B5FA4E
:101AF00085F4C4F11F0407EB840306FA04F4D3F859
:101B0000F40903689847A543F1D1F8BD200E0024DD
:101B100030B1036882881B691A4214BF012000207B
:101B2000704700BF10B1036882889A61704700BF98
:101B300018B1838802681B049361704770B50D4625
:101B400082B00446164640B101680C4B0C4A0B4467
:101B50009B0A02EB4303B3F8C80144F001FDC5F34F
:101B60008101C5F3411305F01302CDE90016A188E8
:101B7000206847F021FC02B070BD00BF0000FEA746
:101B8000D8EA080800B1D9E770472DE9F84FC44FEB
:101B90006423044603FB0073D3F82468002E00F08E
:101BA0006981D3F82C88B8F1000F04D098F9063079
:101BB000002B40F05F81642303FB0473D3F830589B
:101BC00025B195F90630002B40F05481631CDBB23F
:101BD000B8F1000F04D0152288F8073088F80620E5
:101BE00015B11622EB71AA714FF0640A308D44F0E2
:101BF000B7FC29460AFB04FA404649F0EDFF40468F
:101C000007EB0A09DFF8BC8299F8363899F83428CE
:101C1000002B0CBF4FF01E0B4FF03E0B5946FFF749
:101C2000B1FF28469F4D594699F835285544FFF78E
:101C3000A9FF4C22002128464CF010FCD9F824388A
:101C4000994A5B689342C9F83C38DFF87C9240F0CF
:101C500013813CF041F8D9F82030C3F30213434418
:101C600093F8DC3103F01F039FED907A9FED905ABB
:101C7000B0EE084AD8406423F7EE003A4FF0000C6B
:101C800007EE900A03FB047340F21458F8EE677AEB
:101C9000B3F838A8C7EE275A07EE90AA9FED857AC9
:101CA000F8EEE77AC7EE274ADFED837AB0EE007AE6
:101CB000E5EE877AA5EE875A25EE844A37EE856AE7
:101CC00074EEE72ABAF5C87F0CF1010ED5BF4FF4C8
:101CD000967278226423322307EE90EAD8BF4FF43D
:101CE00016791344A2F13202F8EEE76AC8BF4FF446
:101CF000827907EE903AD4BF41464FF4FA7166EE0E
:101D0000A56AB8EEE77AC7EE267A07EE102A01EB4D
:101D10000902B8EEC77A37EE447A77EEE37AFCEE42
:101D2000E77A17EE903AC7EE267AFCEEE77A17EEDE
:101D3000900A07EE909AB8EEE73A07EE902AF8EE8E
:101D4000E77A23EE243A83EE277A37EE453A32EEED
:101D5000C77AC3EE267A77EEE37AFCEEE77A17EEDF
:101D6000901AC7EE267A77EEE37AFCEEE77A17EE62
:101D7000902A02F1020909EB010BB0EE467A07EE58
:101D800090BAF8EE677AA6EEA77AF4EEC74AF1EEBB
:101D900010FA7DDC43EA00095FFA89F9B9F10F0F07
:101DA00078D841EA02091FFA89F9B9F1FF0F71D811
:101DB0001B05000403F07F6392B200F47F0003432D
:101DC0003E4843EA0C7300EA01210B4313436422AB
:101DD000284602FB04740027C4F840380123C4F8E5
:101DE0004478C4F84838C4F84C78C4F85078C4F83B
:101DF0005878C4F85C7847F091FA94F87D38202B35
:101E0000D9B21AD194F87C38012B16D0242384F847
:101E10007D38D4F83C381A6822F001021A601A683A
:101E200022F480521A601A681A601A6842F001029D
:101E30001A6084F87D1884F87C78002196F82B00CD
:101E400044F0FAFA96F82B3001241D4D5A0903F09C
:101E50001F03002104FA03F345F8223096F82A0004
:101E600044F0EAFA96F82A305A0903F01F039C401E
:101E700045F82240BDE8F88F3BF02EFFD9F81C3022
:101E8000C3F30213984498F8DC31EBE6F44619E703
:101E9000013170E7BEF10F0FF8D1002397E700BFC3
:101EA000200E00245C160024001C0058286B6E4E87
:101EB00000001643002474490000704200FFFF0038
:101EC00000E100E0D8EA08080044025808B1002206
:101ED00034E6704770B50E4C94F8F865AEB104F571
:101EE0008764002503E001352034B5420DD0237FFF
:101EF000002BF8D0E06800220028F4D00135217DC5
:101F0000FFF71CFE2034B542F1D1012070BD00BFA7
:101F10000400002070B590F8EE311C09013C082C3B
:101F20000FD81A4E054603F00F0306EB4402B2F831
:101F3000EC0140FA03F2D20703D595F8F121012A0A
:101F400001D0012070BD9A402644013A10404CF067
:101F500035FC96F800320E4A034402EBC30452F8F3
:101F60003320A38810691840ECD0002395F8EF21A6
:101F70000221204685F8F131FFF7E0FDD5F8502128
:101F8000136843F008031360DBE700BFD8EA0808D2
:101F90005418002438B5BFF34F8F6A4A6A49A2F536
:101FA0008653C1F8683220339342FAD1BFF34F8F82
:101FB000BFF36F8F654C94F81D27B4F82C37022AB5
:101FC00011D094F81D27012A00F08D80D4F8E05636
:101FD0000C2B0CD8DFE803F0110B0B0B300B0B0BA9
:101FE0004D0B0B0B6A00002384F82E3738BD0023FD
:101FF0006B62012384F81D3738BDD4F80407544BB5
:10200000544AC36490F83430C263012B00F09780C7
:10201000012290F83530934280F8342000F085801A
:1020200000234FF4006280F8343042656B62EB6845
:1020300043F40073EB60DCE7D4F80807444B454AEF
:10204000C36490F83430C263012B61D0012290F850
:102050003530934280F8342053D000234FF400628F
:1020600080F8343042656B62EB6843F48063EB6068
:10207000BFE7D4F80C07364B364AC36490F83430C7
:10208000C263012B4ED0012290F83530934280F884
:10209000342040D000234FF4006280F83430426591
:1020A0006B62EB6843F40063EB60A2E7D4F81007BF
:1020B000274B284AC36490F83430C263012B1DD0EB
:1020C000012290F83530934280F834200FD000235D
:1020D0004FF4006280F8343042656B62EB6843F481
:1020E0008053EB6085E7022284F81D276EE740F2FB
:1020F0002A4305F1400218493AF084FD00236B623F
:10210000ECE740F22A4305F1380213493AF07AFD30
:1021100000236B62A8E740F22A4305F13C020E4916
:102120003AF070FD00236B62BBE740F22A4305F1F1
:10213000340209493AF066FD00236B6277E7002319
:102140006B6274E7E0FC002400ED00E0200E002448
:10215000F1A5070849A6070820EC0024014B43F825
:10216000201070475040005819481A4B01681A4A0D
:1021700041F4807130B482B00160D3F8F410FF24D0
:10218000CA2041F48031C3F8F410D3F8F41001F4FC
:10219000803101915321019D546250625162D3F804
:1021A000D030DB010CD40C4B00220C495A659A65E7
:1021B000DA651A665A669A66196502B030BC7047CD
:1021C000126D064B9A42EED102B030BC704700BF90
:1021D00000480258004402580040005831666542E9
:1021E0002DE9F84FD0F85C710446534B00F5967614
:1021F000FDB227F0FF09826800F1E00A103D484671
:10220000D2F80080A3FB05352D09294646F09CF93C
:10221000D4F81C210023B2F5807F84F820317FD0D0
:102220000DD8102A00F084805DD8012A46D0042AF7
:1022300016BF6FF400616FF008013C230EE0B2F5A9
:10224000805F71D0B2F5803F3BD0B2F5806F15BF93
:102250006FF400616FF008013C230423324608F15B
:102260001806404656F803C001EA0C01F150D4F8B4
:102270001CB1594645F016FEBBF5807F2ED024D800
:10228000BBF1100F3FD037D8BBF1010F02D0BBF12B
:10229000040F34D14FF0080C3368524629464846A3
:1022A00043EA0C0333604023C4F8E83046F0F0F80A
:1022B0003B6843F010033B60BDE8F88F6FF0080106
:1022C000CCE76FF008013C23C8E7BBF5805F22D064
:1022D000BBF5803F1AD0BBF5806F10D108F11C060A
:1022E0004FF0080CD8E7402A15BF6FF400616FF07B
:1022F00008013C230023B1E7BBF1400FCAD03C36B4
:102300004FF4006CC8E74FF4006CC5E708F15406C1
:102310004FF0080CC0E708F11C064FF4006CBBE757
:102320006FF00801042399E76FF40061042395E737
:102330006FF4006192E700BFABAAAAAA464A92F8DE
:10234000B81E013949B24B1C00F08480434B480150
:1023500003EB411100B5C2F8BC1E811D13F801E06A
:1023600003EB010C92F8C01E8E455BD09CF802E096
:102370008E4555D000F10A0113F801E003EB010C82
:1023800092F8C11E8E4546D09CF802E08E4540D0A2
:1023900000F10E0113F801E003EB010C92F8C21EEC
:1023A0008E4531D09CF802E08E452BD092F8B61EB7
:1023B00031B300F1120113F801E003EB010C92F8C4
:1023C000C31E8E4535D09CF802E08E452FD000F11B
:1023D000160113F801E003EB010C92F8C41E8E45C0
:1023E00033D09CF802E08E452DD01A3092F8C51EED
:1023F00013F800C003448C4521D0987888421DD042
:102400005DF804FB0CF1020CBCF80010A2F8C81E29
:10241000CCE70CF1020CBCF80010A2F8D21EB7E712
:102420000CF1020CBCF80010A2F8D01EA2E70CF1CF
:10243000020CBCF80010A2F8CA1EC8E702331B88C1
:10244000A2F8CE3EDCE70CF1020CBCF80010A2F8BA
:10245000CC1ECAE7704700BF200E0024E4EC080839
:102460000120704743F01EB843F01CB8D0F8E831A3
:102470002DE9F04F93F8323085B0DFF878B3044699
:102480004FEA531A03F01F0306795BF82A200BEB7F
:102490008A0916F0020622FA03F202F00102029201
:1024A00004D090F8EE61003E18BF012601279F403E
:1024B000C9F88070BFF34F8FBFF36F8FD4F8DC3152
:1024C0001A6822F4F8721A609A6822F001029A607F
:1024D000C9F88071BFF34F8FBFF36F8F2423D4F8F7
:1024E0005051A168C4F8D03100232A6822F00102BB
:1024F0002A6004F5A8722B606B60AB60C4F8D83119
:1025000084F8CC31C4F8D031C4F87031C4F8D43177
:102510000192C4F85411B349C4E9593363798D4227
:102520004FEA832202F48052C4F858214FEA033262
:1025300002F40052C4F85C214FEA032202F48062E4
:10254000C4F8602100F0BC81227903F00101D007BA
:1025500000F1588116B10820C4F86401002940F048
:10256000628194F8F0214AB1D4F8782142F008024F
:10257000C4F878214FF40042C4F8882113F0080F02
:10258000D4F8D0314FF024030198C4F8D0312B682F
:1025900023F001032B6000F083813EF021F9012834
:1025A00017D0D4F87831002B40F08E816B6823F47B
:1025B00090436B60AB6823F02203AB60AB6843F0E1
:1025C0000803AB602B68019843F001032B6046F0D1
:1025D0007DF82379DB0775D5D4F82C81B8F1000F8D
:1025E00000F04B8100234FF4807CC4F83C802366CC
:1025F000E366C4E91133C4E91433C4E91933D4F8E8
:102600003431C4F8B8304FF48063E3644FF480335E
:10261000C4E916C304F13C031846039347F0FAFAE1
:1026200003983AF04FF9039BC4F8C831019B6367E4
:10263000D4F8D431202B41D1E368626998B2EAB36F
:10264000B0FA80F14909C8B394F8CCC1BCF1010FCC
:1026500034D04FF0220CC4F8D811A4F8AC010120FA
:10266000C4F8D4C1DFF890C1C4F8A821C4F878C078
:10267000DFF888C1C4F88C10C4F87CC0DFF880C1D2
:1026800084F8CC01C4F888C094F870C084450CD09C
:1026900084F8700094F87100012800F01D814FF457
:1026A000006384F87010C4F890301023C4F8D83157
:1026B000002384F8CC312023C4F8D031D8F804307A
:1026C000C4F84431002E00F08780D4F83061002E29
:1026D00000F0BF80002304F1B405C4F8B460C4F86E
:1026E000C0302846C4F8D030C4E93233C4E93633A8
:1026F000C4E93833D4F83831C4F8B8304023C4F8CA
:10270000BC304FF48063C4F8C4304FF48033C4F855
:10271000D43047F07FFA28463AF0D4F8002840F049
:102720009080019B304AC4F8EC30304BC4F8C4515F
:10273000964218BF9E4202F118020CBF01230023EB
:10274000964208BF43F001031832964208BF43F097
:1027500001031832964208BF43F001031832964233
:1027600008BF43F001031832964208BF43F001034B
:102770001832964208BF43F0010302F556729642A2
:1027800008BF43F001031832964208BF43F001032B
:102790001832964208BF43F001031832964208BF30
:1027A00043F001031832964208BF43F00103183288
:1027B000964208BF43F001031832964208BF43F027
:1027C00001033BB90A4BF31AB3FA83F35B09002BFD
:1027D00000F09A8000237360029B002B46D105B065
:1027E000BDE8F08F000C00582800024010000240A5
:1027F000B804024000E100E029E407085DE40708AE
:1028000061E407080420C4F86401DEB900293FF43C
:10281000A8AED4F8781141F00201C4F878114FF451
:102820008031C4F8801192077FF59BAED4F87821EF
:1028300042F00102C4F878214FF40032C4F87C2140
:102840008FE6FEE70C20C4F8640100293FF489AE4E
:10285000DFE7D4F8DC311A6842F080021A601A68A7
:1028600042F040021A60029B002BB8D0C9F8807178
:102870004BF82A7005B0BDE8F08FD4F8DC311A6847
:1028800042F480721A609A6842F001029A601A68F3
:1028900042F020021A601A6842F010021A6011E732
:1028A0003DF09EFF01283FF494AED4F878317BB917
:1028B0006B6823F490436B60AB6823F02A0380E6D7
:1028C0000422C4F874213FE601983EF081F96DE6D8
:1028D00001983EF07DF9EBE79BB2039805F12401E6
:1028E0003AF090F900287FF4E0AE84F8CC012B6830
:1028F00043F480732B60AB6843F00103AB60AB68BB
:1029000043F04003AB60D9E6736065E738B504096E
:10291000013C082C1AD80F4D00F00F0305EB4402C0
:10292000B2F8EC0140FA03F212F0010210D00122D9
:10293000254402FA03F3013B18404BF03FFF95F8A2
:102940000032054A034402EBC30038BD002038BD05
:10295000104638BDD8EA0808541800242DE9F0477D
:10296000984D05EB0013D3F8D44E002C00F08F8067
:10297000B3F8DE7E06464FEA0019384643F0F0FD14
:1029800001227B0907F01F07023BBA40082B0FD832
:10299000DFE813F0BF00C700CF00D700DF00090059
:1029A000E700EF00B7008849CB6F23EA0203CB674B
:1029B00005EB0903013693F8D80EF6B2FFF7A6FF30
:1029C000074610B11223C671837105EB090393F812
:1029D000D90EFFF79BFF824610B11323C671837196
:1029E00005EB090393F8DA0EFFF790FF804610B16C
:1029F0001423C67183714D4450462E2195F8DC2E68
:102A0000FFF7C0F895F8DD2E40460E21FFF7BAF823
:102A100095F8DB2E2E213846FFF7B4F823686B4A71
:102A200023F001039442236033D0694B9C423ED192
:102A3000654BD3F8902042F48042C3F89020D3F83D
:102A4000902022F48042C3F89020E36843F00043D2
:102A5000E360A36823F4F073A3602368DA0716D455
:102A6000A1685C4A5C4B0A401343A360E368DB0047
:102A700042D5E268594B134043F0E863E3602368B2
:102A800023F400632360236D23F001032365BDE875
:102A9000F0874D4BD3F8982042F48052C3F8982029
:102AA000D3F8982022F48052C3F89820CDE74C4BFD
:102AB0009C4213D04B4B9C4263D04B4B9C426ED1FB
:102AC000414BD3F8982042F48012C3F89820D3F8F1
:102AD000982022F48012C3F89820B6E73A4BD3F836
:102AE000902042F40042C3F89020D3F8902022F4C2
:102AF0000042C3F89020A8E7236843F48053236082
:102B0000B7E73149D1F89C3023EA0203C1F89C3081
:102B10004EE72D49D1F8983023EA0203C1F89830E6
:102B200046E72949D1F8903023EA0203C1F89030F2
:102B30003EE72549D1F8943023EA0203C1F89430E6
:102B400036E72149D1F8803023EA0203C1F880300A
:102B50002EE71D49D1F8843023EA0203C1F88430FE
:102B600026E71949D1F88C3023EA0203C1F88C30EA
:102B70001EE71549D1F8883023EA0203C1F88830EE
:102B800016E7114BD3F8982042F40052C3F898206E
:102B9000D3F8982022F40052C3F8982055E7134B3D
:102BA0009C427FF452AF03F50C33D3F89C2042F0E3
:102BB0002002C3F89C20D3F89C2022F02002C3F806
:102BC0009C2042E7200E00240044025800300140BF
:102BD00000380040E0FFBF8F07000020FFFF39D81A
:102BE000003C0040003401400050014000140058F7
:102BF00008B51D20FFF78AFE10B190F9063053B1D9
:102C00001E20FFF783FE10B190F9063003B108BD16
:102C10005523C38008BD5523C380F1E72DE9F04F4C
:102C2000DFF8CCA29BB09AF8341F31B1A74B93F8D0
:102C3000044320461BB0BDE8F08F01200AF5E6658D
:102C40007C228AF8340F28464BF008FCDAF8BC6E78
:102C50004FF480529AF8B67E3468CAF83827CAF81A
:102C600030471FB14FF48042CAF83C2701224FF48D
:102C7000003CC5E904C29AF86027002A00F095815B
:102C80000322934F8AF86027FA6CD60340F1328111
:102C90000AA83BF05BF80C988E4A010AA2FB0121BE
:102CA00009094D006668A8428B4A02EA060242EA18
:102CB00001026260226842F00302226080F0F88024
:102CC000DAF8381FDAF8382F521A022AFAD9002215
:102CD00082497E4E0492A260E2681140D6F8082331
:102CE00041F48051E1607E49A1FB021B41F2883230
:102CF0004FEA5B2B02FB0BFB5A46002A00F0BE801A
:102D0000616B013A0806F8D5764A7449A2634FF41C
:102D1000D572A260E268114041F208120A43E260F3
:102D2000BBF1000F09D05A46616B11F0450F02D07C
:102D3000890440F18681013AF6D10022CAF86C2755
:102D4000A260664AE1680A4042F48052E2605A4654
:102D5000002A00F09380616B013A0D06F8D5614AB4
:102D60000025A26304994FF6FE72914200F2B281EF
:102D7000DFF868915C4FDFF86C8100222046A2608A
:102D800041F23712E16801EA09010A433721E260A2
:102D900041F288323DF074FF002871D1A76041F202
:102DA0002912E16801EA09010A43E260BBF1000F60
:102DB00008D05A46616B11F0450F01D0880404D544
:102DC000013AF7D14FF080505AE0626B510700F1A1
:102DD0000D83C4F838806169049A002902F1010268
:102DE0000492049A03DB4FF6FE708242C5D9049820
:102DF0004FF6FE72904200F28F834A0040F16E81DE
:102E0000226801279307CAF8687700F0F78200224A
:102E1000DFF8C8802046A26041F20232E16801EA90
:102E200008010A43E2603DF0CDFF48BB626904F14E
:102E3000180304F11C09CAF89C27A2690193CAF877
:102E4000A027E269CAF8A427226ACAF8A82741F293
:102E50000312A060E16801EA080104F120080A43B6
:102E6000E260BBF1000F09D0626B12F0450F02D097
:102E7000910440F15483BBF1010BF5D14FF00040B8
:102E800001228AF86027DAF864270243CAF8642727
:102E90002A24204686F804431BB0BDE8F08F616801
:102EA00005460D4A0A406260226842F00302226031
:102EB0000E49B0FBF5F5B1FBF5F1DAF8380F023148
:102EC000DAF8382F121A9142FAD800E700000024ED
:102ED00000440258598B4F01002CC0FFC0E0FEFF98
:102EE000D34D6210C5002000000010C11021010068
:102EF000200E0024BD6AB96AFE6A11F47C7F7A6BE9
:102F0000C1F30510CBD0C2F3CC0206F0010605F0E8
:102F1000030507EE900A06FB02F2012DF8EEE76AC0
:102F200007EE102ABAEEE97A00F08982022D00F04D
:102F3000AD80002D40F083823A68950640F1F98417
:102F40003968B7EE006A3A6BC1F3C101C2F30803F6
:102F5000584A07EE903ACA40F8EEE77A77EE867A5A
:102F600037EE877A07EE902AB8EEE76AC6EE267A41
:102F700067EE877A5049F7EE006A504D0A6B0A6B8C
:102F8000096BC2F3064307EE103AB8EEC77A37EE84
:102F9000267AC7EE876AFCEEE67A17EE900A010AF7
:102FA000A5FB015109094D007CE6454A944200F019
:102FB0006982444A944200F081829AF8D00EFFF769
:102FC000A5FC83469AF8D20EFFF7A0FC05469AF8B6
:102FD000C80EFFF79BFC9AF8CA3E04469AF8CC9EAE
:102FE0009AF8CE8E0193BBF1000F05D058469AF89F
:102FF000D12E0E21FEF7A2FD2DB128469AF8D32E30
:103000000E21FEF79BFD2CB120469AF8C92E0E2109
:10301000FEF794FD002F40F0F4810021B6F9040082
:1030200043F00AFAB6F90420002A07DB02F01F0475
:10303000012152092448A14040F82210DAF8304713
:103040001EE6626B520700F1AA82626BD3071AD4A4
:10305000626B570601D54022A263002201251B495D
:103060002046CAF86C57A260E268114041F237125C
:103070000A433721E26041F288323DF001FE002828
:103080003FF470AE9EE60122A26356E6DFED107AB1
:1030900087EEA66A3A6BC2F3080307EE903AF7EEA2
:1030A000005AF8EEE77A77EEA57A77EE877A67EE40
:1030B000867A5FE70090D00300440258598B4F0195
:1030C000007000520024024800E100E0C0E0FEFF72
:1030D0000024F44A0499914200F21E82226890076B
:1030E00000F08C81DAF86877032F7FF490AEDAF87D
:1030F0008C17DAF89027A069000DCAF87007880FBE
:103100008DF82800C1F383608DF82900C1F30160B8
:103110008DF82A00C1F307408DF82B00C1F307207A
:10312000C9B28DF82C008DF82D10110DADF82E10B0
:10313000C2F303418DF83010C2F3C0318DF8311065
:10314000C2F380318DF83210C2F340318DF8331064
:10315000C2F300318DF8341000218DF83510002FA6
:1031600040F07A8140F6FC7101EA8202DAF89417A5
:1031700042EA91720E92C1F3C2628DF83C20C1F313
:1031800002628DF83D20C1F342528DF83E20C1F31A
:1031900082428DF83F20C1F3C2328DF840200122D7
:1031A0000E989DF840C010440CF0070C0CF1020C76
:1031B00000FA0CF09DF830C00CF00F0CCAF878073C
:1031C00002FA0CF2CAF87C27520A00FB02F2CAF893
:1031D0008027DAF874074FF4007BDAF898274FF06D
:1031E00001094FEA0048C1F38030CAF884B78DF86E
:1031F0004100C1F3C61001F07F018DF84200204666
:103200008DF84310D10F8DF84410C2F341718DF841
:103210004510C2F382618DF84610C2F383518DF8D8
:103220004710C2F340518DF8481000218DF8491025
:10323000C2F300418DF84A10C2F3C0318DF84B1033
:10324000C2F380318DF84C10C2F340318DF84D102F
:10325000C2F300318DF84E10C2F381218DF84F106A
:10326000C2F30121C2F346028DF850108DF85120AF
:1032700041F207128DF85290C4F80880E16821F4F9
:103280008F3121F49F7121F001010A430721E2608F
:1032900041F288323DF0F4FC00287FF4F1ADC4F82F
:1032A00008B041F2101BE2681021204622F48F3250
:1032B00022F49F7222F0010242EA0B02E26041F224
:1032C00088323DF0DDFC002840F0BC80DAF8389F01
:1032D0006269910100F18F80402310212046A36094
:1032E000E26822F48F3222F49F7222F0010242EA55
:1032F0000B02E26041F288323DF0C2FC00284CD162
:10330000C4F8088041F23712E168204621F48F3179
:1033100021F49F7121F001010A433721E26041F25B
:1033200088323DF0ADFC002837D14FF0FF3240230A
:103330006262A36201301F28FCD9E26A2046A149DB
:1033400022F0FF0242F06302E2620022A260E26821
:10335000114041F20D120A430D21E26041F2883220
:103360003DF08EFCC8B90AA806E0DAF8382FA2EBC7
:103370000902013200F01781626B12F4957F626BD3
:1033800040F014811204F0D500F12001D4F880201F
:1033900040F8042B8142F9D1E7E7DAF86427CAF84C
:1033A0006427894A0121A263DAF864270243204690
:1033B000CAF864278AF860174FF40071814AA16047
:1033C000E1680A4041F21011114341F28832E16094
:1033D00010213DF055FC00283FF45AAD7A4AA26313
:1033E0000122CAF864078AF8602751E504224FF0E9
:1033F0008050A26344E54FF40060D2E74FF0806054
:103400003EE50198FFF782FA20B19AF8CB2E0E2103
:10341000FEF794FB4846FFF779FA20B19AF8CD2ED3
:103420000E21FEF78BFB4046FFF770FA9AF8CF2E7D
:1034300000283FF4F2AD0E21FEF780FBEDE5DFED55
:10344000637A25E6604AA263DAF864270243CAF881
:1034500064278AF860971BE5012F4FD11204DAF830
:10346000941702F47C1242EA11420E924FF4007259
:10347000CAF87C270E9A01329202CAF87827CAF855
:103480008027A6E6524AD2F8D41021F48031C2F83F
:10349000D410D16F41F48031D167D16F21F48031E4
:1034A000D167D2F8D41041F48031C2F8D410D2F8E8
:1034B000D42002F480320392039A7EE5444AD2F883
:1034C000DC1021F40071C2F8DC10D2F8841041F451
:1034D0000071C2F88410D2F8841021F40071C2F88F
:1034E0008410D2F8DC1041F40071C2F8DC10D2F87C
:1034F000DC2002F400720292029A5EE5324A012157
:103500004FF08050A263DAF8642742F08052CAF884
:1035100064278AF86017B3E44FF08070B0E4626B00
:10352000520700F10F82626BD30700F10682226915
:10353000D2B2032A40F00382264AA263626912F4DF
:10354000604F0AD0540400F10B8212F4004F14BFF4
:103550004FF480504FF4803092E4120C1949204609
:10356000CAF874271204A260E268114041F20932DD
:103570000A43E2603DF026FC00287FF481AC6169DB
:10358000019BCAF88C171A68CAF89027D9F800006E
:10359000CAF89407D8F80000CAF89807ABE50422E7
:1035A000A263FFF7CABB4FF00040FAE6130700F131
:1035B000D581626B910700F1CF81626B920615D5C0
:1035C000C8E100BFC0E0FEFFFF0FE01F0024744A07
:1035D00000440258C5002000D4F88010DAF8382FD3
:1035E00040F8041BA2EB09020132DCD0626BD30469
:1035F000F2D4DDE90C120A984FF4007B4FEA11492E
:103600000B9B5FFA82FE4FEA102C29F0FF091BBAD0
:1036100049EA0E092CF0FF0CDFF860E34CEA106C6D
:10362000C4F838E0C0F3811EC0F340101FFA8CFCD0
:103630008DF814E08DF81500C8B2ADF816C00693E9
:103640008DF81C00C1F30720C1F303518DF81D0054
:1036500020468DF81E10C2F38521ADF820908DF81C
:103660002210C2F301218DF82310C2F3031102F0DE
:103670000F028DF824108DF825209DF83B20BA49C3
:103680008DF82620C4F808B0E268114041F210120B
:103690000A431021E26041F288323DF0F1FA00283D
:1036A0007FF49CAE9DF82420012F9DF82510D2B206
:1036B000DAF83C97C9B200F0B5800322CAF888074F
:1036C0008AF86027B9F5004F00F0C580B9F5804F42
:1036D00000F00581B9F1000F00F0C480DAF864272A
:1036E00042F00062CAF86427DAF8642702B39F49FF
:1036F0004FF400722046A163A2609B4AE1680A4031
:1037000041F21011114341F28832E16010213DF085
:10371000B7FA002800F0DE80944AA2630122DAF8AA
:1037200064170843CAF864078AF86027FFF7B0BB3C
:10373000DAF84407DAF834270328DAF83837DAF801
:10374000401709D8DAF888E7BEF5007F04D0BEF547
:10375000807F14BF042002201A4363680A4384490F
:1037600019400A4342EA0902DFF8FC91024320466D
:1037700062604FF40072A26041F21012E16801EA47
:1037800009010A431021E26041F288323DF078FAE3
:103790000028C1D1012241F20D1B8AF86027DAF816
:1037A000383F01930AE0DAF864270243CAF8642735
:1037B000DAF8382F019BD21A013243D0C4F80880BE
:1037C0000D21E268204602EA090242EA0B02E260A9
:1037D00041F288323DF054FA0028E4D1626902F4E3
:1037E000F052B2F5006FE3D1002F624F4FF00101AC
:1037F000CAF8640707F5E56218BF0225CAF85C0736
:10380000044607F5E76C8AF860178AF8F05007F16C
:1038100010050FCA87E80F009CE80F0085E80F002D
:10382000FFF737BB0A4305D00322CAF888B78AF8E6
:10383000602747E74FF48072CAF8882703228AF886
:1038400060273FE74FF000410122CAF864178AF869
:103850006027FFF71DBBDAF8642742F08052CAF8F0
:10386000642741E76269002000219201CDE90A0145
:103870005CD40AA842F006F9024628BB0B9AD3038F
:1038800065D5C4F8088041F23712E1682046DFF8B8
:10389000D8B001EA0B010A433721E26041F28832D5
:1038A0003DF0EEF9024678B9C4F80890E16841F2BB
:1038B0000612204601EA0B010A430621E26041F2AA
:1038C00088323DF0DDF90246DAF864170A43CAF897
:1038D000642709E701228AF86027FFF7D9BA002098
:1038E00062690021CDE90A0190011FD40AA842F0C3
:1038F000C9F802460028E7D10B9A510327D5C4F82E
:10390000088041F23712E1682046DFF85CB001EA36
:103910000B010A433721E26041F288323DF0B0F9F1
:1039200002460028D0D10222A260BFE74FF4006215
:10393000CAE7DFED117AFFF7ABBB0122A2630120DA
:10394000FFF79EBA04221046A263FFF799BA4FF020
:103950008062B9E7202024E5022022E5082020E546
:103960004FF40050FFF78CBAC0E0FEFFFF0FE01FDE
:10397000002CC0FF840E00240024744C3A0F001861
:1039800008B5FFF74BF958B1114A92F8AC3301333F
:10399000DBB2072B82F8AC3303D9002382F8B833AB
:1039A00008BDD2F8E83343B1186892F8E5139B8854
:1039B0000069034049B1002BEFD1D2F88C130123E9
:1039C000C2F8A81382F8B83308BD002BE5D0F4E79D
:1039D000200E0024F8B5964C94F8E463002E00F015
:1039E000D78094F8B8536B1E082B20D8DFE803F07B
:1039F000B1A4581F3A05B51F2B00D4F88830002B0E
:103A000040F0A4800722D4F88C33D4F8A05384F873
:103A1000B823C4F8A833002D00F09880D4F8A4335C
:103A20000120D4E9E521A84794F8B8536B1EDBB216
:103A3000022B40F28480042D18BF082D0CBF0126F4
:103A400000263046F8BDFDF7C9FA002840F0D780BF
:103A5000D4F8A833D4F88C23FA339342EBD2FFF78F
:103A60008FFFBEE7D4F88470002F40F0BF80FDF7D1
:103A7000B5FA0028B5D00423D4F8A05384F8AC7369
:103A800084F8B833002DDCD0D4F8A4333846D4F809
:103A90009423D4F89813A84794F8B8536B1EC6E73C
:103AA000FCF7D2FB00284AD194F8C4200421B4F8D2
:103AB000C63084F8C223D4F8C820A4F8C033120E4C
:103AC000D4F8C83084F8B8131B0C84F8C323D4F896
:103AD000C820D4F8C810120A84F8C43384F8C61376
:103AE00094F8CC1094F8CD3084F8C5231B0994F8D1
:103AF000CD2084F8C713D4F8D01002F00F0284F858
:103B0000CC33C4F8C813B4F8D610B4F8D63084F85F
:103B1000CD23C3F30B13B4F8D620C4F8B40343EA9F
:103B2000112302F00F0203F00F0384F8D02303F5F2
:103B3000FA63A4F8CE3354E7FDF750FA60BBD4F82B
:103B40008C33D4F8A8239B1AC82B44D800263046BF
:103B5000F8BD022384F8B83343E7FDF73FFA0028A5
:103B60003FF476AFD4F8B4230023012A84F8AC33B1
:103B700049D9D4F8B013013A0131C4E9EC1294F8F0
:103B800086240AB1C4F8AC37082384F8B83358E760
:103B9000304684F8B863F8BDFCF756FB0028CED158
:103BA00094F8F030002BA3F10203B3FA83F308BFBB
:103BB00001255B0984F8AD5384F8AE33FCF744FB70
:103BC00000287FF44CAFD4F8E0200323C4F8BC23D2
:103BD00084F8B83305E7FFF7D3FE94F8B863042EF2
:103BE00018BF082E0CBF012600262AE7D4F8A833F8
:103BF000D4F88C2364339342FFF4F3AE1BE7042321
:103C000084F8B8331DE7FAD194F88624C4F8B433A5
:103C10000AB1C4F8AC37FDF7E1F90028EFD1092269
:103C2000D4F88C3384F8B823C4F8A8338EE700BFE7
:103C3000200E00242DE9F0473E4C1F4605460E4657
:103C400094F8B8339046042B13D0082B40D1D4F805
:103C5000B03383420DD0002394F88624C4F8B433E3
:103C60000AB1C4F8AC37FDF7B9F950B3042384F8AE
:103C7000B833D4F8AC97C9F34F230F2BC4E9E565EB
:103C800029D8D4F8B4A3BAF1000F24D094F886341C
:103C90000BB329484FF40072314648444AF080FB88
:103CA00009F50073C3F34F22C4F8AC375B0A102A3E
:103CB00002D0BAF1010F2ED19BB21F4E5A1EAD1A7F
:103CC0000AE00922D4F88C3384F8B823C4F8A83366
:103CD0000120BDE8F0870123062128460125324650
:103CE00084F8B8130021C4F8A083C4F8A47384F83E
:103CF0009C5341F031FE0028EBD0FFF741FED4F891
:103D0000A06336B1D4F8A4330022D4F8981328461F
:103D1000B0470320DDE7D4F8B0230AF1FF330421D4
:103D200002200132C4F8B43384F8B813C4F8B023C5
:103D3000CFE700BF200E0024F02700242DE9F84330
:103D40002B4C80468946174694F8B8C31E46BCF1F2
:103D5000040F13D0BCF1080F02D00020BDE8F88397
:103D6000002394F88624C4F8B4330AB1C4F8AC37FD
:103D7000FDF734F928B3042384F8B83319F01F0F82
:103D800027D101251B4B4FF4007241464846C4F829
:103D9000C4979A602A46C4F88450DD6041F060FD03
:103DA000B8B90522D4F88C332846C4F89493C4F8E3
:103DB000988384F8B823C4F8A833C4E9E876BDE84A
:103DC000F8830922D4F88C3384F8B823C4F8A833D4
:103DD000C3E7FFF7D5FDD4F8A053002DBDD00022D6
:103DE000D4F8A433D4F898131046A847B5E700BF19
:103DF000200E0024E015002410B50379194C002B87
:103E000014BF0122002284F8E42327D094F8B53EA1
:103E1000D4F8E823003B18BF012384F8863492B11C
:103E200011689388096994F8E5230B404AB153B1AE
:103E300094F8AC330022013384F8B82384F8AC330F
:103E400010BD002BF4D0FEF7E9FE0028F0D1D4F825
:103E50008C23012384F8AC03C4F8A82384F8B83376
:103E600010BD00BF200E00242DE9F047344C94F81B
:103E7000D00EFEF74BFD064694F8D20EFEF746FD37
:103E8000054694F8C80EFEF741FD94F8B68E074635
:103E900094F8CCAE94F8CA0E94F8CE4E0EB1182316
:103EA000F3800DB11923EB800FB11A23FB80B8F119
:103EB000000F15D138460121FDF734FEFEF706F854
:103EC00030460121FDF72EFE2846FDF72BFE304639
:103ED000FDF7FCFF28460121BDE8F047FDF7F6BFDE
:103EE000FEF714FD814608B11B23C3805046FEF740
:103EF0000DFD804608B11C23C3802046FEF706FD59
:103F0000044638460CB11D23E3800121FDF70AFE6B
:103F1000FDF7DCFF4846FDF705FE4046FDF702FED3
:103F20002046FDF7FFFD01214846FDF7CFFF404643
:103F30000121FDF7CBFF01212046FDF7C7FFBFE7B9
:103F4000200E0024F8B50E4C94F8F875A7B104F5CE
:103F5000C064C7F109070925013D0FD0A668307973
:103F6000FEF7D4FC94F8DC10F27908B1FDF7E6FD19
:103F7000AF4204F5B474EFD10120F8BDAB68FFDEA9
:103F80000400002010B51C4C94F83D0FFEF7BEFC59
:103F900028B11F210022C1802021FDF7CFFDD4F8D8
:103FA000B4374BB194F8C0279988186802F0010320
:103FB0001B0101FA03F3836194F9B72E002103205A
:103FC000FDF70AFC50B1D4F8E8335BB1196894F8F6
:103FD000E5239B8809690B4012B91BB9012010BD6C
:103FE000002BFBD1FEF71AFE0028F7D1D4F88C3352
:103FF000C4F8903310BD00BF200E002410B58078A7
:10400000FEF784FC90B10A494FF0410C04460022AF
:10401000D1F8443F80F806C00133C1F8443F202165
:10402000C371FDF78BFD2368A2889A6110BD00BFA4
:10403000200E0024F8B50446EFF31185502383F3D6
:10404000128803799B0702D590F8EE3133B901232A
:1040500084F8E031EDB285F31188F8BDD0F8303145
:104060001B6803F00103002BF4D1D0F8D021D0F865
:10407000D4110A4302F02102212AEBD0D0E909121F
:104080009142E4D090B24BD8194623691B1A9BB2D7
:10409000A162002184F8E011D4F8D0112029D9D1EF
:1040A000A1698918D6D0B3FA83F25209002BD1D076
:1040B00094F8CC010128CDD02120A4F8A6314FF0EE
:1040C000010CC4F8D821C4F8D001D4F8C401D4F844
:1040D0005061C4F8A011A4F8A43184F8CCC140B355
:1040E000194F90F834E0C763184FE645026507643E
:1040F000174FC7640AD090F8357080F834C0674510
:1041000011D04FF4006380F8342043651021002261
:104110002023C4F8D81184F8CC21C4F8D03199E711
:10412000081A83B2B4E706F1280238F06BFD0028C4
:10413000ECD100234022326284F8CC31B36843F0E2
:104140008003B36086E700BF01E4070825E40708A1
:1041500061E40708BFF34F8F0549064BCA6802F4B4
:10416000E0621343CB60BFF34F8F00BFFDE700BF9A
:1041700000ED00E00400FA0519484FF6FF0C194A5B
:1041800084B0C168184B01EA0C010A43C260D3F83D
:10419000D020D3F8DC2042F00052C3F8DC20D3F862
:1041A000DC2002F000520192019AD3F8DC2042F0A8
:1041B0008042C3F8DC20D3F8DC2002F08042029277
:1041C000029AD3F8DC2042F00042C3F8DC20D3F896
:1041D000DC3003F000430393039B04B0FCF7BCBF47
:1041E00000ED00E00005FA050044025808B51D483E
:1041F0000023C0F88430BFF34F8F436923F480332A
:104200004361BFF34F8FD0F8803043F6E074C3F3BF
:104210004E3CC3F3C90E4FEA4C1C0CEA0401734632
:1042200041EA8372013BC0F874225A1CF8D1ACF108
:10423000200C1CF1200FF0D1BFF34F8FBFF36F8F15
:10424000BFF34F8FBFF36F8F4369002223F4003316
:104250004361C0F85022BFF34F8FBFF36F8F72B628
:10426000FFF778FF00ED00E003689B0AA3F58013D9
:10427000522B00D970470E4AD35C0D2BFAD84FF061
:104280004C0C10B40B4C42790CFB03400223D0F8C9
:10429000480FDA409340C26829B922EA03035DF867
:1042A000044BC360704713435DF8044BC360704711
:1042B000D8EA0808200E002403689B0AA3F580139F
:1042C000522B10D8084AD25C0D2A0CD84079022310
:1042D00006494FF04C0CD8400CFB02128340D2F838
:1042E000482FDB4313617047D8EA0808200E0024EA
:1042F00001490248FCF70CBE140F002400000140E5
:1043000001490248FCF704BE140F002400000140DC
:1043100002494FF08040FCF7FBBD00BF400F002476
:1043200001490248FCF7F4BD6C0F00240004004072
:1043300001490248FCF7ECBD980F0024000800403A
:1043400001490248FCF7E4BDC40F0024000C004002
:10435000F8B5164D164E2A69EB681A404FF000402A
:10436000B2FA82F3EAB120FA03F3012A6FEA0303F7
:1043700002EA03012B610A46F2D1D6F8F8718FB137
:10438000013F0023BFB2C6F8F831D6F8F44134B18A
:1043900023682046394698476468002CF8D10022EB
:1043A000DCE7F8BDEF6ABFB2EFE700BF00100040E6
:1043B000200E002401490248FCF7AABD4810002441
:1043C0000004014010B5064C064804F50A71FCF7DC
:1043D0009FFD04F520710448BDE81040FCF798BD2E
:1043E000200E002400040140001C00400149024846
:1043F000FCF78EBD741000240018004001490248EB
:10440000FCF786BDCC100024002000400149024882
:10441000FCF77EBDF810002400400140014902482D
:10442000FCF776BD241100240044014001490248F4
:10443000FCF76EBD50110024004801402DE9F04109
:104440004FF425728EB0002173484AF007F8734B81
:10445000734D4FF00008D3F8F02040F27D27A5F50A
:104460001B7605F6F41442F00102C3F8F020D3F8ED
:10447000F02002F001020092009AD3F8E82042F006
:104480000102C3F8E820D3F8E82002F0010201920B
:10449000019AD3F8E82042F00202C3F8E820D3F8EA
:1044A000E82002F002020292029AD3F8E82042F0D9
:1044B0000402C3F8E820D3F8E82002F004020392D3
:1044C000039AD3F8E82042F00802C3F8E820D3F8B2
:1044D000E82002F008020492049AD3F8E82042F09F
:1044E0001002C3F8E820D3F8E82002F01002059289
:1044F000059AD3F8E82042F02002C3F8E820D3F868
:10450000E82002F020020692069AD3F8F02042F04A
:104510000202C3F8F020D3F8F02002F00202079262
:10452000079AD3F8E82042F04002C3F8E820D3F815
:10453000E82002F040020892089AD3F8E82042F0FE
:104540008002C3F8E820D3F8E82002F08002099244
:10455000099AD3F8E82042F48072C3F8E820D3F82F
:10456000E82002F480720A920A9AD3F8F02042F40A
:104570008032C3F8F020D3F8F02002F480320B929E
:104580000B9AD3F8F02042F40032C3F8F020D3F8AD
:10459000F02002F400320C920C9AD3F8F02042F48E
:1045A0008022C3F8F020D3F8F03003F480230D9379
:1045B0000D9B55F82810002354F83320914226D043
:1045C00001330E2BF8D1002008F1070841F0C8FF95
:1045D000B845EED14FF0000840F27D2755F828107D
:1045E000002354F8332091420CD001330E2BF8D124
:1045F000002008F1070841F0B3FFB845EED10EB036
:10460000BDE8F08106EBC303B3F8640CF1E706EBF9
:10461000C303B3F8640CD7E7140F00240044025816
:1046200044ED0808800AA0F5801052280DD8074BE9
:104630001A5C0D2A09D8064B4C2101FB0233D3F832
:10464000482F136843F0010313607047D8EA080845
:10465000200E00241F4B984210B50ED003F5806346
:1046600098420AD01C4A03F58043984218BF9042F2
:1046700003D003F5806398421BD139F02DFB174B13
:104680001749DC69DA69C4F3022CC2F3022201EB98
:104690000C0393F8DC3103F01F03D8400F4B114992
:1046A0001B69C3F3C03342EAC303CB5C03FB00F0D6
:1046B00010BD39F011FB094B0949DC69DA69C4F313
:1046C0000214C2F302120B1993F8DC3103F01F033A
:1046D000D840E3E700000140004001400044025898
:1046E000D8EA0808D43F09082DE9F04F002391B01B
:1046F000AD4C0093AD4BAE4FA3F54D66AB4D4FF0B7
:104700000009AC4BD5F800A093F8D6224FEA9A23C3
:10471000A3F58013522B00F2CE80F35C0D2B00F238
:10472000CA80012A17F903B000F01081022A02D1D1
:10473000BBF1080F3BD14FF000084146584611F03D
:10474000FDFA11F083FB90F900C0BCF1000F18BF17
:10475000BCF1540F14BF4FF0010C4FF0000C40F0AF
:10476000E98008F104081FFA88F8B8F1100FE4D1C5
:10477000009B002B00F0AA808B4A0AE0F35C0D2B13
:104780000ED8FB565B450ED002F58672944200F0BF
:10479000998091680B689B0AA3F58013522BEDD981
:1047A00000235B45F0D14B7969799942ECD109F14D
:1047B00001091C35B9F1080FA3D1009B04F58674DB
:1047C0000133042B009399D17B4A4FF0010B92F8EF
:1047D000F83502F5876901330393039B5B4567D086
:1047E000744B99F81020D9F80C6093F8EA320092D3
:1047F000002E5DD0704AD6F800A055686F48B28888
:10480000002D504401924FEA902040F3AE80664A5A
:10481000002405E0013402F58672AC4200F0A2806B
:1048200011688142F6D1604B4FF48672019D02FB04
:104830000434009B0322C9F80C6089F81030019BF6
:10484000C9F81840B3FA83F7C7F11F035800C9F835
:104850000430B27186F807B002FA00F6A16C0122AA
:10486000D4F854C0314302FA00F002FA03F3A16411
:10487000216D0143D4F8AC0021654F490E7899B2FF
:10488000002E00F04E8143EA0C036365CAF818500D
:10489000FBF708FC0BF1010B2046FBF7D7FB09F1F6
:1048A000200940F20113BBF1090F29F8043C94D10F
:1048B00011B0BDE8F08F013A012A7FF678AF4FF0D2
:1048C000000B38E7BCF1000F7FF471AFA86800223D
:1048D0003B4904E001320C31102A00F088834B6818
:1048E0009842F7D152B269795046FCF7BBFF354A7E
:1048F0004068002351680133884208D0102B02F130
:1049000024023FF454AF516801338842F6D1DBB240
:104910002D4A013B03EBC30302EB830393F9E03021
:10492000002B7FF444AFC9EBC909204B03EB89038B
:10493000A36042E7009B002B7FF41EAF09F1010941
:104940001C35B9F1080F7FF4DCAE36E7BBF1010F7F
:104950003FF4F1AE09F101091C35B9F1080F7FF4FC
:10496000D0AE2AE7042C00F049824FF48671124A37
:1049700001FB052211690491002900F00483906075
:1049800001304FF054019C46C4B20D4882F810111A
:1049900082F811416A1C08494A60049A11689768B4
:1049A00002915179002216E00C000020A8F70808B7
:1049B000E83F0908181F0024040000200000FEA79B
:1049C00004000024C40000240000002401320C3044
:1049D000102A00F00C8343689F42F7D152B202982C
:1049E000CDF814C0FCF73EFF944B4FF48672DFF80D
:1049F0007C8202FB05310022059B0132D0E9017067
:104A0000C1E9077041464868874208D0102A01F181
:104A100024013FF44DAF486801328742F6D1D2B24B
:104A20008749013A02EBC20201EB820292F9E010DF
:104A300000297FF43DAF4FF4867182F8E140069380
:104A4000542401FB05F37F4882F8E0409A107E4928
:104A5000059300FB02F201F560747848C2EBC20CCA
:104A600002EBC202184401EB4C1104EB4212C0F8F5
:104A70000CA0C0F8B410C0F8FC203322C0F8B82055
:104A80008C22C0F80021714A0298D418FFF7E2FD89
:104A9000069B062B00F0B981072B6D496D4B6E4AC2
:104AA00018BF1A466D4B18BF0B464FF48671DDF8E0
:104AB00008A0B0FBF3F3B0FBF2F2013B5F48013A10
:104AC00001FB05019BB2A1F8BC20A1F8743023665C
:104AD000059B03F1580100F10803504619440023D7
:104AE000A4F858306366E36543F05AFBDAF8003007
:104AF00043F08003CAF80030049B5B791A460693A2
:104B00000C2A1CD8DFE812F003021B001B001B005C
:104B1000DD011B001B001B00BB011B001B001B0059
:104B20009601C7F12F072D0402FA07F3324643EA34
:104B30000C036365CAF81850FBF7B4FAAAE63F4ABB
:104B40004FF4867302984FF0000A03FB05230222FC
:104B5000CDF828A059690368079123F00103CDF827
:104B600034A0CDF83CA00360602308934FF4807319
:104B70000E93012309930A23CDE90B3208AA43F0CF
:104B800091F90799B1F5807F00F0288240F24081C9
:104B9000B1F5805F00F00E82B1F5803F00F0048235
:104BA000B1F5806F15BF4FF4006308234FF03C0A46
:104BB0004FF0040A029A183252F80A100B4342F8D6
:104BC0000A30049B1879002840F0CB81029A1368C0
:104BD00043F0010313600023D8F804200133974207
:104BE00000F0BC81102B08F12408F5D14FF0FF3301
:104BF0000027134A03EBC30302EB8303D3F8C4007B
:104C0000174B984214BFA120A02041F0A9FC069A9E
:104C10000C2A00F2A081134B03EB4203B3F8B0CD92
:104C20004FF48673054A104803FB0523DDF808E0BE
:104C300000F23471A3F818C0002320E00400002023
:104C4000000000246B4CA40720E400240C0000208A
:104C5000D0DD0600449508001055220040771B0067
:104C600000000240D8EA0808FC100020C40000241C
:104C7000964500F09D810133042B00F0BB8151F873
:104C80003320002AF4D1D0F854270132C0F8542739
:104C900000EBC300029ADB00C0F834271944384601
:104CA000234690228F884CEA070C0027A1F804C005
:104CB000C349FCF747FE4FF48673C24A40214FF4C4
:104CC000403CC14803FB052A4FF48052DAF81C50DF
:104CD0002B6843F010032B602B6843F014032B6008
:104CE000C4E91F77C4E92777C4E92977DAF82030C7
:104CF000A167E9B2C4F89430069310394FF4806389
:104D0000C4F898C0A0FB01014FF4804CC4F8843073
:104D1000DAF8B8000909059BC4F8900025F0FF00F7
:104D2000DAF80C80C4F8882008F118020491029087
:104D300008F11008226703F17002A44B1A44DAF854
:104D4000B430C4F88CC0636743F0A2FBD5F800C050
:104D5000059BC4F820C0D5F814C003F1B8029B4BE2
:104D6000C4F824C0D5F804C01A44069BC4F828C06F
:104D7000D5F808C00499C4F82CC0D5F80CC0C4F804
:104D8000DC304FF48063C4F8C870C4F8CC304FF402
:104D90000033C4F830C0C4F8E0300298C4E930777A
:104DA000C4E93977C4E93B774FF40067DAF800319A
:104DB000C4F8B880C4F8D0704FF48047C4F8D83035
:104DC000DAF8FC30C4F8D470C4F8BC3043F060FBAF
:104DD0002B68D6F800A063636B69A3636B68E36319
:104DE000AB682364EB6863642B6843F010032B60AB
:104DF0002B6843F014032B60B5881AE50323744A2B
:104E000082F8EB3211B0BDE8F08F724A724B4CE67B
:104E1000102900F0E98000F2BD80012900F0E28055
:104E2000042915BF4FF4006308234FF03C0A4FF0EC
:104E3000000ABFE602984FF4867262494FF0020AF8
:104E4000036802FB05124FF4805123F00103516106
:104E500008AA036000230A930D930F93602308931D
:104E60004FF480730E93012309930A23CDE90B3A83
:104E700043F018F84FF0040A4FF400639AE60298E2
:104E80004FF486724F494FF0020C03684FF0040A4A
:104E900002FB05124FF4807123F00103516160227F
:104EA000036000230E910A930D930F930123CDE924
:104EB00008230A2308AACDE90B3C42F0F3FF08239C
:104EC00078E602984FF486723E494FF0000A036874
:104ED0004FF0020E02FB0512102123F00103CDF862
:104EE00028A0516108AA03606023CDF834A008937C
:104EF0004FF48073CDF83CA00E93012309930A234D
:104F0000CDE90B3E42F0CEFF4FF4006352E602982B
:104F10004FF486722B494FF0000A03684FF0020EDF
:104F200002FB0512012123F00103CDF828A05161F5
:104F300008AA03606023099108934FF48073CDF8A9
:104F400034A00E930A23CDF83CA0CDE90B3E42F0ED
:104F5000A9FF08232EE64FF0000C61E6DFB27B1EAE
:104F600047E6FDF7D3FC824638B1049B0221DA798B
:104F7000FCF7E4FD5423AAF80630029A536C43F47C
:104F80000043536422E60223114A82F8EB3211B047
:104F9000BDE8F08F402915BF4FF4006308234FF0A0
:104FA0003C0A4FF0000A05E608234FF03C0A01E6F0
:104FB000DB0073E64FF400634FF0040AFAE500BF2C
:104FC0000100000004000020ABAAAAAA0C000020E7
:104FD000181F0024882A1100A0BB0D0008234FF0E1
:104FE000040AE7E50823E5E54FF40063E2E5002362
:104FF0005B68FFDE00239B88FFDE00BF2DE9F04FDA
:10500000B04D8FB095F8EC82B8F1000F03D10020BD
:105010000FB0BDE8F08F00222F21404610F06CFF4A
:1050200006460028F3D090F80590A74FD0F800A0CE
:10503000A7F82C97FCF73EFC0028E8D0D0E9014304
:105040000193002CE3D0DFF8B8B20022594601E00A
:10505000102ADCD04B68013224319C42F8D1D2B204
:105060009A4B013A02EBC20203EB820292F9E03062
:10507000002BCCD12F2150460293A2F8E010C7F8A4
:10508000E0A6FFF7E7FA924A029B904280F0FA808E
:105090001A460123039350460292FFF7DBFA029A65
:1050A000039BC7F8E4268B49B0FBF3F2120A8A4847
:1050B000A1FB02210022C7F8F026C7F8E8260A095A
:1050C0000909A0FB0202C7F8EC165208A5F8F02265
:1050D0005200A5F8EE2297F81D2702F0FF01002AE2
:1050E00000F0DE80022250467C4987F81D2739F007
:1050F000C9F80122404687F8282787F81E2787F835
:105100001F2787F8202787F8212787F8222787F885
:10511000232787F8242787F8252787F8262787F865
:10512000272787F81D27FDF7F1FBC5F8F40228B102
:105130002F21C1804E21F279FCF700FD684A002141
:10514000019B4FF4806CC5F80413B9F10C0FC5F83E
:105150001413C5F81C13C5E9BE43C5E9C911D2F83B
:10516000D80040F00100C2F8D800D2F8D80000F012
:10517000010004900498D2F8D80040F00200C2F870
:10518000D800D2F8D82002F002020592059A4FF01A
:105190004002C5F800234FF48052C5E9C2C24FF463
:1051A0008042C5F810234FF40032C5F818234FF0A1
:1051B0000302C5F8202376D84A4A02EB4902B2F826
:1051C000CC8DC246484A08F108084849C5F8302342
:1051D00007EB8802C2F8E016594600224B680132FC
:1051E00024319C4262D0102AF8D14FF0FF32374B65
:1051F00002EBC20203EB8202D2F8C4003C4A9042A6
:1052000014BFA120A02041F0ABF90022DBF804304C
:1052100001320BF1240B9C424BD0102AF6D1002016
:1052200007EB8807534660223249FCF78BFBD7F81F
:10523000E00637F047FB00287FF4E9AEB479002799
:1052400060260C9063004A4606A9274803F0020333
:105250000893E300CDE9066703F008030026002762
:105260000993CDE90A6740F09DFC00287FF4CFAE9A
:10527000A30749461C481ED539F078F8B0FA80F0EB
:105280004009C5E65046FFF7E5F91B4A1B490244B1
:10529000A1FB0212920D531E9AB2531C0393FAE61D
:1052A00087F81C171EE78A4688468BE7D2B2013A78
:1052B0009DE7D0B2B4E738F059FFB0FA80F040096A
:1052C000A6E600BF181F0024200E002400000024C2
:1052D000006CDC02598B4F01ABAAAAAA041500246A
:1052E00000440258D8EA08080015002410220024BF
:1052F00000000240D502000000366E01819F5E165C
:10530000C4000024830AA3F58013522B00D97047F0
:105310002DE9F04115460F4AD65C0D2E17D80E4CDC
:105320004FF04C08013908FB064789B2C7F8541FF3
:10533000FFF790F907F64C71B0FBF5F2013AD7F898
:10534000480FC7F84C2FBDE8F04138F09BBFBDE8CF
:10535000F08100BFD8EA0808200E0024830AA3F5D4
:105360008013522B6ED82DE9F0439046714A85B0D8
:10537000D65C0D2E63D84C256F4F044606FB05F511
:1053800007EB0509D9F8483F834258D00139C9F8DD
:10539000480F083589B2C9F8541FFFF75BF907F6C3
:1053A00048710023B0FBF8F00D440138C9F8503FB4
:1053B000C9F84C0FC5E9023399F8853F03F0FF02A5
:1053C000002B40D04C25022305FB061105FB06757A
:1053D0000431D5F8488F85F8853F404638F052FFB4
:1053E000012385F8903F85F8863F85F8873F85F84B
:1053F000883F85F8893F85F88A3F85F88B3F85F897
:105400008C3F85F88D3F85F88E3F85F88F3F85F876
:10541000853F4A4B9C4219D0B4F1804F16D0A3F57A
:105420007C439C4212D003F580639C420ED003F56E
:1054300080639C4260D003F578439C425CD005B009
:10544000BDE8F083704789F8842FBBE74C2303FB4A
:10545000067393F8842F012AF1D0022283F8852F56
:10546000374AD8F808100A40C8F80820012283F803
:10547000852F002283F8842F00224C232F4903FB21
:10548000067303928845CDE901224FF0020283F8AA
:10549000852FD8F80420D8F8083028D001F580618D
:1054A000884524D022F07002C8F80420254A90458F
:1054B0000DD0B8F1804F0AD0234902F50062904523
:1054C00018BF884503D002F54062904503D123F010
:1054D0008003C8F808304C230121002203FB067327
:1054E00083F8851F83F8842F05B0BDE8F083174942
:1054F0001140C8F80410EAE74C2303FB067393F845
:10550000842F012A9BD0022283F8852F0C4AD8F8D9
:1055100008100A40C8F80820012283F8852F0022CD
:1055200083F8842F0A4B9C42A6D003F578439C4213
:10553000A2D084E7D8EA0808200E00240000014029
:105540008800CEFF00040040000800408FFF0FFFDE
:10555000000C004037B590F867380446032B2FD174
:105560000023204D8DF807309DF8073094F8682807
:105570009A4201D803B030BD9DF8073005EBC30354
:1055800093F874338BB181F0010383B19DF8073038
:1055900005EBC303D3F87003FCF7C4FA9DF807309A
:1055A0000133DBB28DF80730DEE70B46EDE79DF8FF
:1055B000073005EBC303D3F87003FCF7B9FAEDE746
:1055C000D0E910039B7903F00103994204D003B0A2
:1055D000BDE83040FCF7A6BA03B0BDE83040FCF7A8
:1055E000A7BA00BF181F002438B5044600790D463D
:1055F00050B1FDF78BF908B10323C380E279294646
:10560000BDE83840FCF7BEBA38BD10B504462221CB
:10561000FFF7EAFF2046FEF74FFE20460121BDE8D6
:105620001040FEF721BE10B504460121FFF7DCFF54
:1056300000212046BDE81040FEF716BE38B510F830
:10564000133CA0F66C041BBB94F858388BBBD4E910
:1056500009239A421CD05A1CA169A262CB5C216921
:105660005B008A4228BF002243F40073A262A4F8C0
:105670005C380A2384F85A38012384F8583894F89F
:105680006738012B01D0042B02D1606CFFF7CBFFF0
:1056900094F85438002B6DD194F855380133DBB2AF
:1056A000092B84F8553825D12046BDE83840FAF753
:1056B0005BBF94F95A586DB1B4F85C18013D2046AF
:1056C0004B0801F00101A4F85C38FFF743FF84F8B0
:1056D0005A58DDE7D4E9092384F858589A42D7D1BB
:1056E00094F86738012B01D0042BD1D1606CFFF7FF
:1056F0008CFFCDE70A2B3DD194F857382BB9B4F87D
:105700005E3843F00103A4F85E382379D9070AD53F
:10571000B4F85E08820501D4C30718D4B4F864381D
:105720000133A4F864380122002384F8542894F843
:10573000572884F85538012A1CD16179606C84F8A7
:10574000573801F00101BDE838403FF0A9BAE36ADB
:10575000C0F3470013B1216B9847E4E7E36962693E
:10576000D054E369E2680133B3FBF2F102FB113379
:10577000E361D8E738BD00BF2DE9F043BFB0BFF308
:105780005F8FA24A0020516A0346044621F480310B
:1057900051620146C2F89400C2F898300133C2F851
:1057A0009C10112BC2F8A010F6D10523C2F894303A
:1057B000536A43F480335362BFF34F8FBFF36F8F4D
:1057C0009348944A9449121A48F0EAFD9348944A3F
:1057D0009449121A48F0E4FD934BDA6D042A00F064
:1057E000FB8005D8012A00F09383022A00F0A683EB
:1057F000864A00238D4C0120D2F888108C4E41F44B
:1058000070018C4DC2F8881020602361216841F03E
:1058100080012160216801432160216841F48031C9
:105820002160216841F480512160A361E36123621A
:10583000A362E36223636363A363E3632364636438
